:100000000C943E000C94F0010C945B000C945B008B
:100010000C945B000C945B000C945B000C945B00F4
:100020000C945B000C945B000C945B000C945B00E4
:100030000C945B000C945B000C945B000C945B00D4
:100040000C945B000C945B000C945B000C945B00C4
:100050000C945B000C945B000C945B000C945B00B4
:100060000C945B000C945B000C945B000C945B00A4
:100070000C945B000C945B000C945B0011241FBE7D
:10008000CFEFD8E0DEBFCDBF11E0A0E0B1E0E0E708
:10009000F5E002C005900D92A230B107D9F721E03A
:1000A000A2E0B1E001C01D92A730B207E1F70E94C3
:1000B0002A010C94B6020C94000085B1806485B9C5
:1000C000000085B18F7B85B90895CF93DF93D82F3A
:1000D000662321F085B1806185B903C085B18F7E2B
:1000E00085B985B18F7D85B984B18F6084B9C5B17B
:1000F000C07F8D2F82958F708C2B85B90E945D00FB
:10010000DF70DC2BD5B90E945D00CF60C5B9DF91EF
:10011000CF910895882321F085B1806185B903C00E
:1001200085B18F7E85B985B1806285B984B1807FC4
:1001300084B985B1806485B9000093B19295907FB0
:1001400085B18F7B85B9000085B1806485B90000D9
:1001500083B18F7025B12F7B25B9892B089580E05D
:100160000E948A008823DCF300C000C080E00E9467
:100170008A000895CF93C82F0E94AF0060E08C2FB3
:100180000E946500CF91089581E00E94BA00089511
:10019000CF93C82F0E94AF00CA3049F4803410F4C6
:1001A00080E401C080E080580E94BA0004C061E091
:1001B0008C2F0E946500CF910895CF93DF93FC01AF
:1001C00003C00E94C800FE01EF01219680818111C9
:1001D000F8CFDF91CF910895CF93C82F84B18F6767
:1001E00084B98FE99FE00197F1F700C0000085B165
:1001F000826085B985B1816085B90E945D0081EE1C
:1002000094E00197F1F700C000000E945D0095E1C5
:100210009A95F1F700000E945D0085E18A95F1F75B
:10022000000085B18E7F85B90E945D0095E19A95A9
:10023000F1F7000088E20E94BA0088E00E94BA004C
:100240000E94C40086E00E94BA008C2F0E94BA006F
:10025000CF910895CF93DF93CDB7DEB7A0970FB6B8
:10026000F894DEBF0FBECDBF8FEF87B981B18E7F0F
:1002700081B98CE00E94EC00E1E8F0E08081817EB1
:100280008083A0E8B0E08C918C7F8C93808181602A
:100290008083E9E6F0E080818160808380818D7FCA
:1002A00080838DB381608DBB7894009B04C01092D5
:1002B00002010099FECF019B05C081E080930201FD
:1002C0000199FECF809100018111EFCF0E94C400FF
:1002D0008091030190910401A0910501B091060164
:1002E000BC01CD016E7F7170882799272AE0AE018D
:1002F0004F5F5F4F0E948402CE0101960E94DD0095
:1003000080910201882381F0809103018E7F88B95A
:10031000109203011092040110920501109206013F
:1003200080E280930001C1CF80910301909104018C
:10033000A0910501B09106018E7F9170AA27BB277D
:100340008C3B9105A105B105E9F180F48639910551
:10035000A105B10511F1843A9105A105B10579F125
:1003600084389105A105B10579F520C08E3C910531
:10037000A105B105A9F030F4863C9105A105B105B0
:10038000D9F022C0863E9105A105B10561F08E3EEF
:100390009105A105B10569F017C081E088B914C0C5
:1003A00082E088B911C084E088B90EC088E088B9BD
:1003B0000BC080E188B908C080E288B905C080E43C
:1003C00088B902C080E888B9109203011092040134
:1003D000109205011092060180E28093000165CF22
:1003E0001F920F920FB60F9211242F933F934F93AA
:1003F0005F936F937F938F939F93AF93BF938091FE
:100400000001882309F471C04A9B05C01092850041
:10041000109284006AC02091840030918500A90167
:100420004C5E57404B39510538F58150809300019F
:1004300021E030E0A90102C0440F551F8A95E2F780
:10044000CA0180959095092E000CAA0BBB0B409118
:10045000030150910401609105017091060184230C
:100460009523A623B7238093030190930401A093BF
:100470000501B093060139C0A901435C57414E3ACA
:10048000510528F581508093000121E030E0A90159
:1004900002C0440F551F8A95E2F7CA01092E000CCD
:1004A000AA0BBB0B4091030150910401609105011F
:1004B00070910601842B952BA62BB72B80930301FB
:1004C00090930401A0930501B09306010EC0293555
:1004D0003B4158F010920301109204011092050163
:1004E0001092060180E280930001BF91AF919F912D
:1004F0008F917F916F915F914F913F912F910F90CD
:100500000FBE0F901F901895BB27FA01A62F6217F8
:10051000710581059105330B30FB66F0AA27660F44
:10052000771F881F991FAA1FA21710F0A21B63959F
:100530003850A9F7A05DAA3308F0A95DA19336F75A
:10054000B111B1931082CA010C94A602DC01FC0126
:10055000672F71917723E1F7329704C07C916D93F7
:1005600070836291AE17BF07C8F30895F894FFCF68
:02057000200069
:00000001FF
