S012000049522D6465636F6465722E7372656374
S11300000C943E000C9417010C9450000C94500076
S11300100C9450000C9450000C9450000C9450001C
S11300200C9450000C9450000C9450000C9450000C
S11300300C9450000C9450000C9450000C945000FC
S11300400C9450000C9450000C9450000C945000EC
S11300500C9450000C9450000C9450000C945000DC
S11300600C9450000C9450000C9450000C945000CC
S11300700C9450000C9450000C94500011241FBE9A
S1130080CFEFD8E0DEBFCDBF21E0A0E0B1E001C0FA
S11300901D92A030B207E1F70E94FB000C942101ED
S11300A00C94000088B1806488B9000088B18F7B0B
S11300B088B90895CF93DF93D82F662321F088B1B0
S11300C0806188B903C088B18F7E88B988B18F7D7B
S11300D088B987B18F6087B9C8B1C07F8D2F8295E9
S11300E08F708C2B88B90E945200DF70DC2BD8B93A
S11300F00E945200CF60C8B9DF91CF910895882340
S113010021F088B1806188B903C088B18F7E88B935
S113011088B1806288B987B1807F87B988B18064EB
S113012088B9000096B19295907F88B18F7B88B989
S1130130000088B1806488B9000086B18F7028B14E
S11301402F7B28B9892B089580E00E947F008823A3
S1130150DCF300C000C080E00E947F000895CF93CC
S1130160C82F0E94A40060E08C2F0E945A00CF91F7
S1130170089581E00E94AF000895CF93C82F87B1FE
S11301808F6787B98FE99FE00197F1F700C00000FE
S113019088B1826088B988B1816088B90E945200B0
S11301A081EE94E00197F1F700C000000E94520034
S11301B095E19A95F1F700000E94520085E18A9535
S11301C0F1F7000088B18E7F88B90E94520095E152
S11301D09A95F1F7000088E20E94AF0088E00E943F
S11301E0AF000E94B90086E00E94AF008C2F0E94ED
S11301F0AF00CF9108958CE00E94BD00E1E8F0E0EB
S11302008081817E8083A0E8B0E08C918C7F8C9388
S1130210808181608083E9E6F0E080818160808371
S113022080818D7F80838DB381608DBBFFCF1F92D2
S11302300F920FB60F9211240F900FBE0F901F90C4
S10902401895F894FFCFAD
S9030000FC
