S012000049522D6465636F6465722E7372656374
S11300000C943E000C947A010C945B000C945B00FD
S11300100C945B000C945B000C945B000C945B00F0
S11300200C945B000C945B000C945B000C945B00E0
S11300300C945B000C945B000C945B000C945B00D0
S11300400C945B000C945B000C945B000C945B00C0
S11300500C945B000C945B000C945B000C945B00B0
S11300600C945B000C945B000C945B000C945B00A0
S11300700C945B000C945B000C945B0011241FBE79
S1130080CFEFD8E0DEBFCDBF11E0A0E0B1E0EAE7FA
S1130090F4E002C005900D92A230B107D9F721E037
S11300A0A2E0B1E001C01D92A630B207E1F70E94C0
S11300B02A010C943B020C94000088B1806488B936
S11300C0000088B18F7B88B90895CF93DF93D82F30
S11300D0662321F088B1806188B903C088B18F7E1E
S11300E088B988B18F7D88B987B18F6087B9C8B165
S11300F0C07F8D2F82958F708C2B88B90E945D00F4
S1130100DF70DC2BD8B90E945D00CF60C8B9DF91E5
S1130110CF910895882321F088B1806188B903C004
S113012088B18F7E88B988B1806288B987B1807FB1
S113013087B988B1806488B9000096B19295907FA0
S113014088B18F7B88B9000088B1806488B90000C9
S113015086B18F7028B12F7B28B9892B089580E050
S11301600E948A008823DCF300C000C080E00E9463
S11301708A000895CF93C82F0E94AF0060E08C2FAF
S11301800E946500CF91089581E00E94BA0008950D
S1130190CF93C82F0E94AF00CA3049F4803410F4C2
S11301A080E401C080E080580E94BA0004C061E08D
S11301B08C2F0E946500CF910895CF93DF93FC01AB
S11301C003C00E94C800FE01EF01219680818111C5
S11301D0F8CFDF91CF910895CF93C82F87B18F6760
S11301E087B98FE99FE00197F1F700C0000088B15B
S11301F0826088B988B1816088B90E945D0081EE0F
S113020094E00197F1F700C000000E945D0095E1C1
S11302109A95F1F700000E945D0085E18A95F1F757
S1130220000088B18E7F88B90E945D0095E19A959F
S1130230F1F7000088E20E94BA0088E00E94BA0048
S11302400E94C40086E00E94BA008C2F0E94BA006B
S1130250CF910895CF93DF93CDB7DEB7A0970FB6B4
S1130260F894DEBF0FBECDBF8CE00E94EC00E1E845
S1130270F0E08081817E8083A0E8B0E08C918C7F67
S11302808C93808181608083E9E6F0E080818160E5
S1130290808380818D7F80838DB381608DBB7894D2
S11302A0809100018130E1F70E94C4008091020135
S11302B090910301A0910401B0910501BC01CD010D
S11302C06E7F71708827992720E1AE014F5F5F4FE1
S11302D00E940902CE0101960E94DD0010920201E3
S11302E010920301109204011092050180E28093A0
S11302F00001D6CF1F920F920FB60F9211242F93A5
S11303003F934F935F936F937F938F939F93AF9399
S1130310BF934A9B05C010928500109284006AC066
S113032080918400909185009C012C5E37402B398C
S1130330310538F52091000121502093000181E01E
S113034090E002C0880F991F2A95E2F78095909556
S1130350092E000CAA0BBB0B409102015091030122
S1130360609104017091050184239523A623B7238A
S11303708093020190930301A0930401B0930501BB
S113038039C09C01235C37412E3A310528F5209170
S1130390000121502093000181E090E002C0880F09
S11303A0991F2A95E2F7092E000CAA0BBB0B40916A
S11303B00201509103016091040170910501842BA5
S11303C0952BA62BB72B8093020190930301A09346
S11303D00401B09305010EC089359B4158F0109279
S11303E0020110920301109204011092050180E2AF
S11303F080930001BF91AF919F918F917F916F91F5
S11304005F914F913F912F910F900FBE0F901F90CE
S11304101895BB27FA01A62F62177105810591056E
S1130420330B30FB66F0AA27660F771F881F991FCE
S1130430AA1FA21710F0A21B63953850A9F7A05D5C
S1130440AA3308F0A95DA19336F7B111B1931082D4
S1130450CA010C942B02DC01FC01672F71917723F4
S1130460E1F7329704C07C916D9370836291AE176B
S10D0470BF07C8F30895F894FFCF06
S105047A20005C
S9030000FC
